{"contracts/distribute.sol":{"Distribute":{"abi":[{"stateMutability":"payable","type":"fallback"},{"inputs":[],"name":"bamboo_amount","outputs":[{"internalType":"uint256","name":"","type":"uint256"}],"stateMutability":"view","type":"function"},{"inputs":[],"name":"cantillionaires_amount","outputs":[{"internalType":"uint256","name":"","type":"uint256"}],"stateMutability":"view","type":"function"},{"inputs":[],"name":"canto_messenger_amount","outputs":[{"internalType":"uint256","name":"","type":"uint256"}],"stateMutability":"view","type":"function"},{"inputs":[],"name":"canto_sh_amount","outputs":[{"internalType":"uint256","name":"","type":"uint256"}],"stateMutability":"view","type":"function"},{"inputs":[],"name":"canto_tools_amount","outputs":[{"internalType":"uint256","name":"","type":"uint256"}],"stateMutability":"view","type":"function"},{"inputs":[],"name":"carbon_amount","outputs":[{"internalType":"uint256","name":"","type":"uint256"}],"stateMutability":"view","type":"function"},{"inputs":[],"name":"distributeUsingCall","outputs":[],"stateMutability":"nonpayable","type":"function"},{"inputs":[],"name":"distributeUsingTransfer","outputs":[],"stateMutability":"nonpayable","type":"function"},{"inputs":[],"name":"getBalance","outputs":[{"internalType":"uint256","name":"","type":"uint256"}],"stateMutability":"view","type":"function"},{"stateMutability":"payable","type":"receive"}],"evm":{"bytecode":{"linkReferences":{},"object":"6080604052600080546001600160a01b03199081167361720daf21641487e7cc3c71dd3583b8ce2b8d0a1790915560018054821673ca0ef5a0ac9323e7f9ba5d417f9bb173470b495c17905560028054821673eda724ad752bda46117a4fb0558d537910fc71f3179055600380548216739e884f11f96b0dd527a6e267b344927338ace6d917905560048054821673264217b2b74c1b3d85c199226c93dd341377443c17905560058054909116732e2407bf0220c2eb7d1f180a8ef43a8cc7939e4b17905569152d02c7e14af6800000600655690878678326eac9000000600781905560088190556009819055600a819055600b5534801561010057600080fd5b5061072a806101106000396000f3fe6080604052600436106100845760003560e01c806361269b621161005657806361269b62146100ef5780637a2e6616146101055780637cd8e1f31461011b578063bc52636b14610131578063e7c5c6021461014757005b806312065fe01461008d5780631c838b12146100ae5780633de8f80f146100c3578063414a7611146100d957005b3661008b57005b005b34801561009957600080fd5b50475b60405190815260200160405180910390f35b3480156100ba57600080fd5b5061008b61015c565b3480156100cf57600080fd5b5061009c60085481565b3480156100e557600080fd5b5061009c60065481565b3480156100fb57600080fd5b5061009c600b5481565b34801561011157600080fd5b5061009c600a5481565b34801561012757600080fd5b5061009c60075481565b34801561013d57600080fd5b5061009c60095481565b34801561015357600080fd5b5061008b610585565b6000805460065460405183926001600160a01b031691908381818185875af1925050503d80600081146101ab576040519150601f19603f3d011682016040523d82523d6000602084013e6101b0565b606091505b5060015460075460405193955091935060009283926001600160a01b0390921691908381818185875af1925050503d806000811461020a576040519150601f19603f3d011682016040523d82523d6000602084013e61020f565b606091505b5060025460085460405193955091935060009283926001600160a01b0390921691908381818185875af1925050503d8060008114610269576040519150601f19603f3d011682016040523d82523d6000602084013e61026e565b606091505b5060035460095460405193955091935060009283926001600160a01b0390921691908381818185875af1925050503d80600081146102c8576040519150601f19603f3d011682016040523d82523d6000602084013e6102cd565b606091505b50600454600a5460405193955091935060009283926001600160a01b0390921691908381818185875af1925050503d8060008114610327576040519150601f19603f3d011682016040523d82523d6000602084013e61032c565b606091505b50600554600b5460405193955091935060009283926001600160a01b0390921691908381818185875af1925050503d8060008114610386576040519150601f19603f3d011682016040523d82523d6000602084013e61038b565b606091505b50915091508b6103ec5760405162461bcd60e51b815260206004820152602160248201527f6661696c656420746f2073656e6420746f2063616e746f5f6d657373656e67656044820152603960f91b60648201526084015b60405180910390fd5b896104395760405162461bcd60e51b815260206004820152601860248201527f6661696c656420746f2073656e6420746f2062616d626f6f000000000000000060448201526064016103e3565b876104865760405162461bcd60e51b815260206004820152601d60248201527f6661696c656420746f2073656e6420746f2063616e746f5f746f6f6c7300000060448201526064016103e3565b856104dd5760405162461bcd60e51b815260206004820152602160248201527f6661696c656420746f2073656e6420746f2063616e74696c6c696f6e616972656044820152607360f81b60648201526084016103e3565b8361052a5760405162461bcd60e51b815260206004820152601a60248201527f6661696c656420746f2073656e6420746f2063616e746f5f736800000000000060448201526064016103e3565b816105775760405162461bcd60e51b815260206004820152601860248201527f6661696c656420746f2073656e6420746f20636172626f6e000000000000000060448201526064016103e3565b505050505050505050505050565b600080546006546040516001600160a01b039092169281156108fc029290818181858888f193505050501580156105c0573d6000803e3d6000fd5b506001546007546040516001600160a01b039092169181156108fc0291906000818181858888f193505050501580156105fd573d6000803e3d6000fd5b506002546008546040516001600160a01b039092169181156108fc0291906000818181858888f1935050505015801561063a573d6000803e3d6000fd5b506003546009546040516001600160a01b039092169181156108fc0291906000818181858888f19350505050158015610677573d6000803e3d6000fd5b50600454600a546040516001600160a01b039092169181156108fc0291906000818181858888f193505050501580156106b4573d6000803e3d6000fd5b50600554600b546040516001600160a01b039092169181156108fc0291906000818181858888f193505050501580156106f1573d6000803e3d6000fd5b5056fea264697066735822122092587ad8054ee7d8a379f6fa2c756ccfba06c596cef9210bc8da0261b8aaa70164736f6c634300080b0033","opcodes":"PUSH1 0x80 PUSH1 0x40 MSTORE PUSH1 0x0 DUP1 SLOAD PUSH1 0x1 PUSH1 0x1 PUSH1 0xA0 SHL SUB NOT SWAP1 DUP2 AND PUSH20 0x61720DAF21641487E7CC3C71DD3583B8CE2B8D0A OR SWAP1 SWAP2 SSTORE PUSH1 0x1 DUP1 SLOAD DUP3 AND PUSH20 0xCA0EF5A0AC9323E7F9BA5D417F9BB173470B495C OR SWAP1 SSTORE PUSH1 0x2 DUP1 SLOAD DUP3 AND PUSH20 0xEDA724AD752BDA46117A4FB0558D537910FC71F3 OR SWAP1 SSTORE PUSH1 0x3 DUP1 SLOAD DUP3 AND PUSH20 0x9E884F11F96B0DD527A6E267B344927338ACE6D9 OR SWAP1 SSTORE PUSH1 0x4 DUP1 SLOAD DUP3 AND PUSH20 0x264217B2B74C1B3D85C199226C93DD341377443C OR SWAP1 SSTORE PUSH1 0x5 DUP1 SLOAD SWAP1 SWAP2 AND PUSH20 0x2E2407BF0220C2EB7D1F180A8EF43A8CC7939E4B OR SWAP1 SSTORE PUSH10 0x152D02C7E14AF6800000 PUSH1 0x6 SSTORE PUSH10 0x878678326EAC9000000 PUSH1 0x7 DUP2 SWAP1 SSTORE PUSH1 0x8 DUP2 SWAP1 SSTORE PUSH1 0x9 DUP2 SWAP1 SSTORE PUSH1 0xA DUP2 SWAP1 SSTORE PUSH1 0xB SSTORE CALLVALUE DUP1 ISZERO PUSH2 0x100 JUMPI PUSH1 0x0 DUP1 REVERT JUMPDEST POP PUSH2 0x72A DUP1 PUSH2 0x110 PUSH1 0x0 CODECOPY PUSH1 0x0 RETURN INVALID PUSH1 0x80 PUSH1 0x40 MSTORE PUSH1 0x4 CALLDATASIZE LT PUSH2 0x84 JUMPI PUSH1 0x0 CALLDATALOAD PUSH1 0xE0 SHR DUP1 PUSH4 0x61269B62 GT PUSH2 0x56 JUMPI DUP1 PUSH4 0x61269B62 EQ PUSH2 0xEF JUMPI DUP1 PUSH4 0x7A2E6616 EQ PUSH2 0x105 JUMPI DUP1 PUSH4 0x7CD8E1F3 EQ PUSH2 0x11B JUMPI DUP1 PUSH4 0xBC52636B EQ PUSH2 0x131 JUMPI DUP1 PUSH4 0xE7C5C602 EQ PUSH2 0x147 JUMPI STOP JUMPDEST DUP1 PUSH4 0x12065FE0 EQ PUSH2 0x8D JUMPI DUP1 PUSH4 0x1C838B12 EQ PUSH2 0xAE JUMPI DUP1 PUSH4 0x3DE8F80F EQ PUSH2 0xC3 JUMPI DUP1 PUSH4 0x414A7611 EQ PUSH2 0xD9 JUMPI STOP JUMPDEST CALLDATASIZE PUSH2 0x8B JUMPI STOP JUMPDEST STOP JUMPDEST CALLVALUE DUP1 ISZERO PUSH2 0x99 JUMPI PUSH1 0x0 DUP1 REVERT JUMPDEST POP SELFBALANCE JUMPDEST PUSH1 0x40 MLOAD SWAP1 DUP2 MSTORE PUSH1 0x20 ADD PUSH1 0x40 MLOAD DUP1 SWAP2 SUB SWAP1 RETURN JUMPDEST CALLVALUE DUP1 ISZERO PUSH2 0xBA JUMPI PUSH1 0x0 DUP1 REVERT JUMPDEST POP PUSH2 0x8B PUSH2 0x15C JUMP JUMPDEST CALLVALUE DUP1 ISZERO PUSH2 0xCF JUMPI PUSH1 0x0 DUP1 REVERT JUMPDEST POP PUSH2 0x9C PUSH1 0x8 SLOAD DUP2 JUMP JUMPDEST CALLVALUE DUP1 ISZERO PUSH2 0xE5 JUMPI PUSH1 0x0 DUP1 REVERT JUMPDEST POP PUSH2 0x9C PUSH1 0x6 SLOAD DUP2 JUMP JUMPDEST CALLVALUE DUP1 ISZERO PUSH2 0xFB JUMPI PUSH1 0x0 DUP1 REVERT JUMPDEST POP PUSH2 0x9C PUSH1 0xB SLOAD DUP2 JUMP JUMPDEST CALLVALUE DUP1 ISZERO PUSH2 0x111 JUMPI PUSH1 0x0 DUP1 REVERT JUMPDEST POP PUSH2 0x9C PUSH1 0xA SLOAD DUP2 JUMP JUMPDEST CALLVALUE DUP1 ISZERO PUSH2 0x127 JUMPI PUSH1 0x0 DUP1 REVERT JUMPDEST POP PUSH2 0x9C PUSH1 0x7 SLOAD DUP2 JUMP JUMPDEST CALLVALUE DUP1 ISZERO PUSH2 0x13D JUMPI PUSH1 0x0 DUP1 REVERT JUMPDEST POP PUSH2 0x9C PUSH1 0x9 SLOAD DUP2 JUMP JUMPDEST CALLVALUE DUP1 ISZERO PUSH2 0x153 JUMPI PUSH1 0x0 DUP1 REVERT JUMPDEST POP PUSH2 0x8B PUSH2 0x585 JUMP JUMPDEST PUSH1 0x0 DUP1 SLOAD PUSH1 0x6 SLOAD PUSH1 0x40 MLOAD DUP4 SWAP3 PUSH1 0x1 PUSH1 0x1 PUSH1 0xA0 SHL SUB AND SWAP2 SWAP1 DUP4 DUP2 DUP2 DUP2 DUP6 DUP8 GAS CALL SWAP3 POP POP POP RETURNDATASIZE DUP1 PUSH1 0x0 DUP2 EQ PUSH2 0x1AB JUMPI PUSH1 0x40 MLOAD SWAP2 POP PUSH1 0x1F NOT PUSH1 0x3F RETURNDATASIZE ADD AND DUP3 ADD PUSH1 0x40 MSTORE RETURNDATASIZE DUP3 MSTORE RETURNDATASIZE PUSH1 0x0 PUSH1 0x20 DUP5 ADD RETURNDATACOPY PUSH2 0x1B0 JUMP JUMPDEST PUSH1 0x60 SWAP2 POP JUMPDEST POP PUSH1 0x1 SLOAD PUSH1 0x7 SLOAD PUSH1 0x40 MLOAD SWAP4 SWAP6 POP SWAP2 SWAP4 POP PUSH1 0x0 SWAP3 DUP4 SWAP3 PUSH1 0x1 PUSH1 0x1 PUSH1 0xA0 SHL SUB SWAP1 SWAP3 AND SWAP2 SWAP1 DUP4 DUP2 DUP2 DUP2 DUP6 DUP8 GAS CALL SWAP3 POP POP POP RETURNDATASIZE DUP1 PUSH1 0x0 DUP2 EQ PUSH2 0x20A JUMPI PUSH1 0x40 MLOAD SWAP2 POP PUSH1 0x1F NOT PUSH1 0x3F RETURNDATASIZE ADD AND DUP3 ADD PUSH1 0x40 MSTORE RETURNDATASIZE DUP3 MSTORE RETURNDATASIZE PUSH1 0x0 PUSH1 0x20 DUP5 ADD RETURNDATACOPY PUSH2 0x20F JUMP JUMPDEST PUSH1 0x60 SWAP2 POP JUMPDEST POP PUSH1 0x2 SLOAD PUSH1 0x8 SLOAD PUSH1 0x40 MLOAD SWAP4 SWAP6 POP SWAP2 SWAP4 POP PUSH1 0x0 SWAP3 DUP4 SWAP3 PUSH1 0x1 PUSH1 0x1 PUSH1 0xA0 SHL SUB SWAP1 SWAP3 AND SWAP2 SWAP1 DUP4 DUP2 DUP2 DUP2 DUP6 DUP8 GAS CALL SWAP3 POP POP POP RETURNDATASIZE DUP1 PUSH1 0x0 DUP2 EQ PUSH2 0x269 JUMPI PUSH1 0x40 MLOAD SWAP2 POP PUSH1 0x1F NOT PUSH1 0x3F RETURNDATASIZE ADD AND DUP3 ADD PUSH1 0x40 MSTORE RETURNDATASIZE DUP3 MSTORE RETURNDATASIZE PUSH1 0x0 PUSH1 0x20 DUP5 ADD RETURNDATACOPY PUSH2 0x26E JUMP JUMPDEST PUSH1 0x60 SWAP2 POP JUMPDEST POP PUSH1 0x3 SLOAD PUSH1 0x9 SLOAD PUSH1 0x40 MLOAD SWAP4 SWAP6 POP SWAP2 SWAP4 POP PUSH1 0x0 SWAP3 DUP4 SWAP3 PUSH1 0x1 PUSH1 0x1 PUSH1 0xA0 SHL SUB SWAP1 SWAP3 AND SWAP2 SWAP1 DUP4 DUP2 DUP2 DUP2 DUP6 DUP8 GAS CALL SWAP3 POP POP POP RETURNDATASIZE DUP1 PUSH1 0x0 DUP2 EQ PUSH2 0x2C8 JUMPI PUSH1 0x40 MLOAD SWAP2 POP PUSH1 0x1F NOT PUSH1 0x3F RETURNDATASIZE ADD AND DUP3 ADD PUSH1 0x40 MSTORE RETURNDATASIZE DUP3 MSTORE RETURNDATASIZE PUSH1 0x0 PUSH1 0x20 DUP5 ADD RETURNDATACOPY PUSH2 0x2CD JUMP JUMPDEST PUSH1 0x60 SWAP2 POP JUMPDEST POP PUSH1 0x4 SLOAD PUSH1 0xA SLOAD PUSH1 0x40 MLOAD SWAP4 SWAP6 POP SWAP2 SWAP4 POP PUSH1 0x0 SWAP3 DUP4 SWAP3 PUSH1 0x1 PUSH1 0x1 PUSH1 0xA0 SHL SUB SWAP1 SWAP3 AND SWAP2 SWAP1 DUP4 DUP2 DUP2 DUP2 DUP6 DUP8 GAS CALL SWAP3 POP POP POP RETURNDATASIZE DUP1 PUSH1 0x0 DUP2 EQ PUSH2 0x327 JUMPI PUSH1 0x40 MLOAD SWAP2 POP PUSH1 0x1F NOT PUSH1 0x3F RETURNDATASIZE ADD AND DUP3 ADD PUSH1 0x40 MSTORE RETURNDATASIZE DUP3 MSTORE RETURNDATASIZE PUSH1 0x0 PUSH1 0x20 DUP5 ADD RETURNDATACOPY PUSH2 0x32C JUMP JUMPDEST PUSH1 0x60 SWAP2 POP JUMPDEST POP PUSH1 0x5 SLOAD PUSH1 0xB SLOAD PUSH1 0x40 MLOAD SWAP4 SWAP6 POP SWAP2 SWAP4 POP PUSH1 0x0 SWAP3 DUP4 SWAP3 PUSH1 0x1 PUSH1 0x1 PUSH1 0xA0 SHL SUB SWAP1 SWAP3 AND SWAP2 SWAP1 DUP4 DUP2 DUP2 DUP2 DUP6 DUP8 GAS CALL SWAP3 POP POP POP RETURNDATASIZE DUP1 PUSH1 0x0 DUP2 EQ PUSH2 0x386 JUMPI PUSH1 0x40 MLOAD SWAP2 POP PUSH1 0x1F NOT PUSH1 0x3F RETURNDATASIZE ADD AND DUP3 ADD PUSH1 0x40 MSTORE RETURNDATASIZE DUP3 MSTORE RETURNDATASIZE PUSH1 0x0 PUSH1 0x20 DUP5 ADD RETURNDATACOPY PUSH2 0x38B JUMP JUMPDEST PUSH1 0x60 SWAP2 POP JUMPDEST POP SWAP2 POP SWAP2 POP DUP12 PUSH2 0x3EC JUMPI PUSH1 0x40 MLOAD PUSH3 0x461BCD PUSH1 0xE5 SHL DUP2 MSTORE PUSH1 0x20 PUSH1 0x4 DUP3 ADD MSTORE PUSH1 0x21 PUSH1 0x24 DUP3 ADD MSTORE PUSH32 0x6661696C656420746F2073656E6420746F2063616E746F5F6D657373656E6765 PUSH1 0x44 DUP3 ADD MSTORE PUSH1 0x39 PUSH1 0xF9 SHL PUSH1 0x64 DUP3 ADD MSTORE PUSH1 0x84 ADD JUMPDEST PUSH1 0x40 MLOAD DUP1 SWAP2 SUB SWAP1 REVERT JUMPDEST DUP10 PUSH2 0x439 JUMPI PUSH1 0x40 MLOAD PUSH3 0x461BCD PUSH1 0xE5 SHL DUP2 MSTORE PUSH1 0x20 PUSH1 0x4 DUP3 ADD MSTORE PUSH1 0x18 PUSH1 0x24 DUP3 ADD MSTORE PUSH32 0x6661696C656420746F2073656E6420746F2062616D626F6F0000000000000000 PUSH1 0x44 DUP3 ADD MSTORE PUSH1 0x64 ADD PUSH2 0x3E3 JUMP JUMPDEST DUP8 PUSH2 0x486 JUMPI PUSH1 0x40 MLOAD PUSH3 0x461BCD PUSH1 0xE5 SHL DUP2 MSTORE PUSH1 0x20 PUSH1 0x4 DUP3 ADD MSTORE PUSH1 0x1D PUSH1 0x24 DUP3 ADD MSTORE PUSH32 0x6661696C656420746F2073656E6420746F2063616E746F5F746F6F6C73000000 PUSH1 0x44 DUP3 ADD MSTORE PUSH1 0x64 ADD PUSH2 0x3E3 JUMP JUMPDEST DUP6 PUSH2 0x4DD JUMPI PUSH1 0x40 MLOAD PUSH3 0x461BCD PUSH1 0xE5 SHL DUP2 MSTORE PUSH1 0x20 PUSH1 0x4 DUP3 ADD MSTORE PUSH1 0x21 PUSH1 0x24 DUP3 ADD MSTORE PUSH32 0x6661696C656420746F2073656E6420746F2063616E74696C6C696F6E61697265 PUSH1 0x44 DUP3 ADD MSTORE PUSH1 0x73 PUSH1 0xF8 SHL PUSH1 0x64 DUP3 ADD MSTORE PUSH1 0x84 ADD PUSH2 0x3E3 JUMP JUMPDEST DUP4 PUSH2 0x52A JUMPI PUSH1 0x40 MLOAD PUSH3 0x461BCD PUSH1 0xE5 SHL DUP2 MSTORE PUSH1 0x20 PUSH1 0x4 DUP3 ADD MSTORE PUSH1 0x1A PUSH1 0x24 DUP3 ADD MSTORE PUSH32 0x6661696C656420746F2073656E6420746F2063616E746F5F7368000000000000 PUSH1 0x44 DUP3 ADD MSTORE PUSH1 0x64 ADD PUSH2 0x3E3 JUMP JUMPDEST DUP2 PUSH2 0x577 JUMPI PUSH1 0x40 MLOAD PUSH3 0x461BCD PUSH1 0xE5 SHL DUP2 MSTORE PUSH1 0x20 PUSH1 0x4 DUP3 ADD MSTORE PUSH1 0x18 PUSH1 0x24 DUP3 ADD MSTORE PUSH32 0x6661696C656420746F2073656E6420746F20636172626F6E0000000000000000 PUSH1 0x44 DUP3 ADD MSTORE PUSH1 0x64 ADD PUSH2 0x3E3 JUMP JUMPDEST POP POP POP POP POP POP POP POP POP POP POP POP JUMP JUMPDEST PUSH1 0x0 DUP1 SLOAD PUSH1 0x6 SLOAD PUSH1 0x40 MLOAD PUSH1 0x1 PUSH1 0x1 PUSH1 0xA0 SHL SUB SWAP1 SWAP3 AND SWAP3 DUP2 ISZERO PUSH2 0x8FC MUL SWAP3 SWAP1 DUP2 DUP2 DUP2 DUP6 DUP9 DUP9 CALL SWAP4 POP POP POP POP ISZERO DUP1 ISZERO PUSH2 0x5C0 JUMPI RETURNDATASIZE PUSH1 0x0 DUP1 RETURNDATACOPY RETURNDATASIZE PUSH1 0x0 REVERT JUMPDEST POP PUSH1 0x1 SLOAD PUSH1 0x7 SLOAD PUSH1 0x40 MLOAD PUSH1 0x1 PUSH1 0x1 PUSH1 0xA0 SHL SUB SWAP1 SWAP3 AND SWAP2 DUP2 ISZERO PUSH2 0x8FC MUL SWAP2 SWAP1 PUSH1 0x0 DUP2 DUP2 DUP2 DUP6 DUP9 DUP9 CALL SWAP4 POP POP POP POP ISZERO DUP1 ISZERO PUSH2 0x5FD JUMPI RETURNDATASIZE PUSH1 0x0 DUP1 RETURNDATACOPY RETURNDATASIZE PUSH1 0x0 REVERT JUMPDEST POP PUSH1 0x2 SLOAD PUSH1 0x8 SLOAD PUSH1 0x40 MLOAD PUSH1 0x1 PUSH1 0x1 PUSH1 0xA0 SHL SUB SWAP1 SWAP3 AND SWAP2 DUP2 ISZERO PUSH2 0x8FC MUL SWAP2 SWAP1 PUSH1 0x0 DUP2 DUP2 DUP2 DUP6 DUP9 DUP9 CALL SWAP4 POP POP POP POP ISZERO DUP1 ISZERO PUSH2 0x63A JUMPI RETURNDATASIZE PUSH1 0x0 DUP1 RETURNDATACOPY RETURNDATASIZE PUSH1 0x0 REVERT JUMPDEST POP PUSH1 0x3 SLOAD PUSH1 0x9 SLOAD PUSH1 0x40 MLOAD PUSH1 0x1 PUSH1 0x1 PUSH1 0xA0 SHL SUB SWAP1 SWAP3 AND SWAP2 DUP2 ISZERO PUSH2 0x8FC MUL SWAP2 SWAP1 PUSH1 0x0 DUP2 DUP2 DUP2 DUP6 DUP9 DUP9 CALL SWAP4 POP POP POP POP ISZERO DUP1 ISZERO PUSH2 0x677 JUMPI RETURNDATASIZE PUSH1 0x0 DUP1 RETURNDATACOPY RETURNDATASIZE PUSH1 0x0 REVERT JUMPDEST POP PUSH1 0x4 SLOAD PUSH1 0xA SLOAD PUSH1 0x40 MLOAD PUSH1 0x1 PUSH1 0x1 PUSH1 0xA0 SHL SUB SWAP1 SWAP3 AND SWAP2 DUP2 ISZERO PUSH2 0x8FC MUL SWAP2 SWAP1 PUSH1 0x0 DUP2 DUP2 DUP2 DUP6 DUP9 DUP9 CALL SWAP4 POP POP POP POP ISZERO DUP1 ISZERO PUSH2 0x6B4 JUMPI RETURNDATASIZE PUSH1 0x0 DUP1 RETURNDATACOPY RETURNDATASIZE PUSH1 0x0 REVERT JUMPDEST POP PUSH1 0x5 SLOAD PUSH1 0xB SLOAD PUSH1 0x40 MLOAD PUSH1 0x1 PUSH1 0x1 PUSH1 0xA0 SHL SUB SWAP1 SWAP3 AND SWAP2 DUP2 ISZERO PUSH2 0x8FC MUL SWAP2 SWAP1 PUSH1 0x0 DUP2 DUP2 DUP2 DUP6 DUP9 DUP9 CALL SWAP4 POP POP POP POP ISZERO DUP1 ISZERO PUSH2 0x6F1 JUMPI RETURNDATASIZE PUSH1 0x0 DUP1 RETURNDATACOPY RETURNDATASIZE PUSH1 0x0 REVERT JUMPDEST POP JUMP INVALID LOG2 PUSH5 0x6970667358 0x22 SLT KECCAK256 SWAP3 PC PUSH27 0xD8054EE7D8A379F6FA2C756CCFBA06C596CEF9210BC8DA0261B8AA 0xA7 ADD PUSH5 0x736F6C6343 STOP ADDMOD SIGNEXTEND STOP CALLER "},"methodIdentifiers":{"bamboo_amount()":"7cd8e1f3","cantillionaires_amount()":"bc52636b","canto_messenger_amount()":"414a7611","canto_sh_amount()":"7a2e6616","canto_tools_amount()":"3de8f80f","carbon_amount()":"61269b62","distributeUsingCall()":"1c838b12","distributeUsingTransfer()":"e7c5c602","getBalance()":"12065fe0"}}}}}