{
  "_format": "hh-sol-artifact-1",
  "contractName": "Distribute",
  "sourceName": "contracts/distribute.sol",
  "abi": [
    {
      "stateMutability": "payable",
      "type": "fallback"
    },
    {
      "inputs": [],
      "name": "cantoswap_amount",
      "outputs": [
        {
          "internalType": "uint256",
          "name": "",
          "type": "uint256"
        }
      ],
      "stateMutability": "view",
      "type": "function"
    },
    {
      "inputs": [],
      "name": "cns_amount",
      "outputs": [
        {
          "internalType": "uint256",
          "name": "",
          "type": "uint256"
        }
      ],
      "stateMutability": "view",
      "type": "function"
    },
    {
      "inputs": [],
      "name": "distributeUsingCall",
      "outputs": [],
      "stateMutability": "nonpayable",
      "type": "function"
    },
    {
      "inputs": [],
      "name": "distributeUsingTransfer",
      "outputs": [],
      "stateMutability": "nonpayable",
      "type": "function"
    },
    {
      "inputs": [],
      "name": "getBalance",
      "outputs": [
        {
          "internalType": "uint256",
          "name": "",
          "type": "uint256"
        }
      ],
      "stateMutability": "view",
      "type": "function"
    },
    {
      "inputs": [],
      "name": "kanto_amount",
      "outputs": [
        {
          "internalType": "uint256",
          "name": "",
          "type": "uint256"
        }
      ],
      "stateMutability": "view",
      "type": "function"
    },
    {
      "inputs": [],
      "name": "longnecks_amount",
      "outputs": [
        {
          "internalType": "uint256",
          "name": "",
          "type": "uint256"
        }
      ],
      "stateMutability": "view",
      "type": "function"
    },
    {
      "inputs": [],
      "name": "magnet_amount",
      "outputs": [
        {
          "internalType": "uint256",
          "name": "",
          "type": "uint256"
        }
      ],
      "stateMutability": "view",
      "type": "function"
    },
    {
      "inputs": [],
      "name": "prompt_amount",
      "outputs": [
        {
          "internalType": "uint256",
          "name": "",
          "type": "uint256"
        }
      ],
      "stateMutability": "view",
      "type": "function"
    },
    {
      "inputs": [],
      "name": "thoth_amount",
      "outputs": [
        {
          "internalType": "uint256",
          "name": "",
          "type": "uint256"
        }
      ],
      "stateMutability": "view",
      "type": "function"
    },
    {
      "inputs": [],
      "name": "y2r_amount",
      "outputs": [
        {
          "internalType": "uint256",
          "name": "",
          "type": "uint256"
        }
      ],
      "stateMutability": "view",
      "type": "function"
    },
    {
      "stateMutability": "payable",
      "type": "receive"
    }
  ],
  "bytecode": "0x6080604052730189402fa964da3f5c59c81af192cd4b2a29973b6000806101000a81548173ffffffffffffffffffffffffffffffffffffffff021916908373ffffffffffffffffffffffffffffffffffffffff160217905550732be8f7a8eff738afcd688af4d3dd314164065760600160006101000a81548173ffffffffffffffffffffffffffffffffffffffff021916908373ffffffffffffffffffffffffffffffffffffffff16021790555073f39eee4f21359e78a30d992e0b2d7feaae5c97ff600260006101000a81548173ffffffffffffffffffffffffffffffffffffffff021916908373ffffffffffffffffffffffffffffffffffffffff160217905550736dc370451ad0c5a6bcb4f1618bbbbff1dc40b42a600360006101000a81548173ffffffffffffffffffffffffffffffffffffffff021916908373ffffffffffffffffffffffffffffffffffffffff160217905550732e2407bf0220c2eb7d1f180a8ef43a8cc7939e4b600460006101000a81548173ffffffffffffffffffffffffffffffffffffffff021916908373ffffffffffffffffffffffffffffffffffffffff16021790555073810be8a5c6b6b38a7c1530f9e0b81f47cef92b25600560006101000a81548173ffffffffffffffffffffffffffffffffffffffff021916908373ffffffffffffffffffffffffffffffffffffffff16021790555073a779fc675db318dab004ab8d538cb320d0013f42600660006101000a81548173ffffffffffffffffffffffffffffffffffffffff021916908373ffffffffffffffffffffffffffffffffffffffff1602179055507373d9312a7c47a25c18e27e94160034ac7ae99576600760006101000a81548173ffffffffffffffffffffffffffffffffffffffff021916908373ffffffffffffffffffffffffffffffffffffffff16021790555069152d02c7e14af6800000600855690878678326eac9000000600955690878678326eac9000000600a55690878678326eac9000000600b55690878678326eac9000000600c556902d2cd1fdffd73150000600d556902d2cd1fdffd73150000600e556902d2cd1fdffd73150000600f5534801561032757600080fd5b506110ab806103376000396000f3fe6080604052600436106100a05760003560e01c8063474380ed11610064578063474380ed1461016c57806369666f08146101975780637b3084fc146101c2578063b3865961146101ed578063e7c5c60214610218578063f6e0cfcf1461022f576100a7565b806312065fe0146100a957806316dc0ab2146100d45780631aa6e6e5146100ff5780631c838b121461012a57806335d8ebe014610141576100a7565b366100a757005b005b3480156100b557600080fd5b506100be61025a565b6040516100cb9190610ca3565b60405180910390f35b3480156100e057600080fd5b506100e9610262565b6040516100f69190610ca3565b60405180910390f35b34801561010b57600080fd5b50610114610268565b6040516101219190610ca3565b60405180910390f35b34801561013657600080fd5b5061013f61026e565b005b34801561014d57600080fd5b5061015661090e565b6040516101639190610ca3565b60405180910390f35b34801561017857600080fd5b50610181610914565b60405161018e9190610ca3565b60405180910390f35b3480156101a357600080fd5b506101ac61091a565b6040516101b99190610ca3565b60405180910390f35b3480156101ce57600080fd5b506101d7610920565b6040516101e49190610ca3565b60405180910390f35b3480156101f957600080fd5b50610202610926565b60405161020f9190610ca3565b60405180910390f35b34801561022457600080fd5b5061022d61092c565b005b34801561023b57600080fd5b50610244610c84565b6040516102519190610ca3565b60405180910390f35b600047905090565b600a5481565b600d5481565b60008060008054906101000a900473ffffffffffffffffffffffffffffffffffffffff1673ffffffffffffffffffffffffffffffffffffffff166008546040516102b790610cef565b60006040518083038185875af1925050503d80600081146102f4576040519150601f19603f3d011682016040523d82523d6000602084013e6102f9565b606091505b5091509150600080600160009054906101000a900473ffffffffffffffffffffffffffffffffffffffff1673ffffffffffffffffffffffffffffffffffffffff1660095460405161034990610cef565b60006040518083038185875af1925050503d8060008114610386576040519150601f19603f3d011682016040523d82523d6000602084013e61038b565b606091505b5091509150600080600260009054906101000a900473ffffffffffffffffffffffffffffffffffffffff1673ffffffffffffffffffffffffffffffffffffffff16600a546040516103db90610cef565b60006040518083038185875af1925050503d8060008114610418576040519150601f19603f3d011682016040523d82523d6000602084013e61041d565b606091505b5091509150600080600360009054906101000a900473ffffffffffffffffffffffffffffffffffffffff1673ffffffffffffffffffffffffffffffffffffffff16600b5460405161046d90610cef565b60006040518083038185875af1925050503d80600081146104aa576040519150601f19603f3d011682016040523d82523d6000602084013e6104af565b606091505b5091509150600080600460009054906101000a900473ffffffffffffffffffffffffffffffffffffffff1673ffffffffffffffffffffffffffffffffffffffff16600c546040516104ff90610cef565b60006040518083038185875af1925050503d806000811461053c576040519150601f19603f3d011682016040523d82523d6000602084013e610541565b606091505b5091509150600080600560009054906101000a900473ffffffffffffffffffffffffffffffffffffffff1673ffffffffffffffffffffffffffffffffffffffff16600d5460405161059190610cef565b60006040518083038185875af1925050503d80600081146105ce576040519150601f19603f3d011682016040523d82523d6000602084013e6105d3565b606091505b5091509150600080600660009054906101000a900473ffffffffffffffffffffffffffffffffffffffff1673ffffffffffffffffffffffffffffffffffffffff16600e5460405161062390610cef565b60006040518083038185875af1925050503d8060008114610660576040519150601f19603f3d011682016040523d82523d6000602084013e610665565b606091505b5091509150600080600760009054906101000a900473ffffffffffffffffffffffffffffffffffffffff1673ffffffffffffffffffffffffffffffffffffffff16600f546040516106b590610cef565b60006040518083038185875af1925050503d80600081146106f2576040519150601f19603f3d011682016040523d82523d6000602084013e6106f7565b606091505b50915091508f61073c576040517f08c379a000000000000000000000000000000000000000000000000000000000815260040161073390610d61565b60405180910390fd5b8d61077c576040517f08c379a000000000000000000000000000000000000000000000000000000000815260040161077390610dcd565b60405180910390fd5b8b6107bc576040517f08c379a00000000000000000000000000000000000000000000000000000000081526004016107b390610e39565b60405180910390fd5b896107fc576040517f08c379a00000000000000000000000000000000000000000000000000000000081526004016107f390610ea5565b60405180910390fd5b8761083c576040517f08c379a000000000000000000000000000000000000000000000000000000000815260040161083390610f11565b60405180910390fd5b8561087c576040517f08c379a000000000000000000000000000000000000000000000000000000000815260040161087390610f7d565b60405180910390fd5b836108bc576040517f08c379a00000000000000000000000000000000000000000000000000000000081526004016108b390610fe9565b60405180910390fd5b816108fc576040517f08c379a00000000000000000000000000000000000000000000000000000000081526004016108f390611055565b60405180910390fd5b50505050505050505050505050505050565b60095481565b600c5481565b60085481565b600b5481565b600f5481565b60008054906101000a900473ffffffffffffffffffffffffffffffffffffffff1673ffffffffffffffffffffffffffffffffffffffff166108fc6008549081150290604051600060405180830381858888f19350505050158015610994573d6000803e3d6000fd5b50600160009054906101000a900473ffffffffffffffffffffffffffffffffffffffff1673ffffffffffffffffffffffffffffffffffffffff166108fc6009549081150290604051600060405180830381858888f193505050501580156109ff573d6000803e3d6000fd5b50600260009054906101000a900473ffffffffffffffffffffffffffffffffffffffff1673ffffffffffffffffffffffffffffffffffffffff166108fc600a549081150290604051600060405180830381858888f19350505050158015610a6a573d6000803e3d6000fd5b50600360009054906101000a900473ffffffffffffffffffffffffffffffffffffffff1673ffffffffffffffffffffffffffffffffffffffff166108fc600b549081150290604051600060405180830381858888f19350505050158015610ad5573d6000803e3d6000fd5b50600460009054906101000a900473ffffffffffffffffffffffffffffffffffffffff1673ffffffffffffffffffffffffffffffffffffffff166108fc600c549081150290604051600060405180830381858888f19350505050158015610b40573d6000803e3d6000fd5b50600560009054906101000a900473ffffffffffffffffffffffffffffffffffffffff1673ffffffffffffffffffffffffffffffffffffffff166108fc600d549081150290604051600060405180830381858888f19350505050158015610bab573d6000803e3d6000fd5b50600660009054906101000a900473ffffffffffffffffffffffffffffffffffffffff1673ffffffffffffffffffffffffffffffffffffffff166108fc600e549081150290604051600060405180830381858888f19350505050158015610c16573d6000803e3d6000fd5b50600760009054906101000a900473ffffffffffffffffffffffffffffffffffffffff1673ffffffffffffffffffffffffffffffffffffffff166108fc600f549081150290604051600060405180830381858888f19350505050158015610c81573d6000803e3d6000fd5b50565b600e5481565b6000819050919050565b610c9d81610c8a565b82525050565b6000602082019050610cb86000830184610c94565b92915050565b600081905092915050565b50565b6000610cd9600083610cbe565b9150610ce482610cc9565b600082019050919050565b6000610cfa82610ccc565b9150819050919050565b600082825260208201905092915050565b7f6661696c656420746f2073656e6420746f206c6f6e676e65636b730000000000600082015250565b6000610d4b601b83610d04565b9150610d5682610d15565b602082019050919050565b60006020820190508181036000830152610d7a81610d3e565b9050919050565b7f6661696c656420746f2073656e6420746f20636e730000000000000000000000600082015250565b6000610db7601583610d04565b9150610dc282610d81565b602082019050919050565b60006020820190508181036000830152610de681610daa565b9050919050565b7f6661696c656420746f2073656e6420746f2063616e746f737761700000000000600082015250565b6000610e23601b83610d04565b9150610e2e82610ded565b602082019050919050565b60006020820190508181036000830152610e5281610e16565b9050919050565b7f6661696c656420746f2073656e6420746f206d61676e65740000000000000000600082015250565b6000610e8f601883610d04565b9150610e9a82610e59565b602082019050919050565b60006020820190508181036000830152610ebe81610e82565b9050919050565b7f6661696c656420746f2073656e6420746f206b616e746f000000000000000000600082015250565b6000610efb601783610d04565b9150610f0682610ec5565b602082019050919050565b60006020820190508181036000830152610f2a81610eee565b9050919050565b7f6661696c656420746f2073656e6420746f2070726f6d70740000000000000000600082015250565b6000610f67601883610d04565b9150610f7282610f31565b602082019050919050565b60006020820190508181036000830152610f9681610f5a565b9050919050565b7f6661696c656420746f2073656e6420746f2074686f7468000000000000000000600082015250565b6000610fd3601783610d04565b9150610fde82610f9d565b602082019050919050565b6000602082019050818103600083015261100281610fc6565b9050919050565b7f6661696c656420746f2073656e6420746f207932720000000000000000000000600082015250565b600061103f601583610d04565b915061104a82611009565b602082019050919050565b6000602082019050818103600083015261106e81611032565b905091905056fea264697066735822122075d13157260467bcb753fd651f315def2f771a7d7965339fbc0eadb0d9d254fa64736f6c63430008110033",
  "linkReferences": {},
  "deployedLinkReferences": {}
}