{
  "_format": "hh-sol-artifact-1",
  "contractName": "Distribute",
  "sourceName": "contracts/distribute.sol",
  "abi": [
    {
      "stateMutability": "payable",
      "type": "fallback"
    },
    {
      "inputs": [],
      "name": "bamboo_amount",
      "outputs": [
        {
          "internalType": "uint256",
          "name": "",
          "type": "uint256"
        }
      ],
      "stateMutability": "view",
      "type": "function"
    },
    {
      "inputs": [],
      "name": "cantillionaires_amount",
      "outputs": [
        {
          "internalType": "uint256",
          "name": "",
          "type": "uint256"
        }
      ],
      "stateMutability": "view",
      "type": "function"
    },
    {
      "inputs": [],
      "name": "canto_messenger_amount",
      "outputs": [
        {
          "internalType": "uint256",
          "name": "",
          "type": "uint256"
        }
      ],
      "stateMutability": "view",
      "type": "function"
    },
    {
      "inputs": [],
      "name": "canto_sh_amount",
      "outputs": [
        {
          "internalType": "uint256",
          "name": "",
          "type": "uint256"
        }
      ],
      "stateMutability": "view",
      "type": "function"
    },
    {
      "inputs": [],
      "name": "canto_tools_amount",
      "outputs": [
        {
          "internalType": "uint256",
          "name": "",
          "type": "uint256"
        }
      ],
      "stateMutability": "view",
      "type": "function"
    },
    {
      "inputs": [],
      "name": "carbon_amount",
      "outputs": [
        {
          "internalType": "uint256",
          "name": "",
          "type": "uint256"
        }
      ],
      "stateMutability": "view",
      "type": "function"
    },
    {
      "inputs": [],
      "name": "distributeUsingCall",
      "outputs": [],
      "stateMutability": "nonpayable",
      "type": "function"
    },
    {
      "inputs": [],
      "name": "distributeUsingTransfer",
      "outputs": [],
      "stateMutability": "nonpayable",
      "type": "function"
    },
    {
      "inputs": [],
      "name": "getBalance",
      "outputs": [
        {
          "internalType": "uint256",
          "name": "",
          "type": "uint256"
        }
      ],
      "stateMutability": "view",
      "type": "function"
    },
    {
      "stateMutability": "payable",
      "type": "receive"
    }
  ],
  "bytecode": "0x6080604052600080546001600160a01b03199081167361720daf21641487e7cc3c71dd3583b8ce2b8d0a1790915560018054821673ca0ef5a0ac9323e7f9ba5d417f9bb173470b495c17905560028054821673eda724ad752bda46117a4fb0558d537910fc71f3179055600380548216739e884f11f96b0dd527a6e267b344927338ace6d917905560048054821673264217b2b74c1b3d85c199226c93dd341377443c17905560058054909116732e2407bf0220c2eb7d1f180a8ef43a8cc7939e4b17905569152d02c7e14af6800000600655690878678326eac9000000600781905560088190556009819055600a819055600b5534801561010057600080fd5b5061072a806101106000396000f3fe6080604052600436106100845760003560e01c806361269b621161005657806361269b62146100ef5780637a2e6616146101055780637cd8e1f31461011b578063bc52636b14610131578063e7c5c6021461014757005b806312065fe01461008d5780631c838b12146100ae5780633de8f80f146100c3578063414a7611146100d957005b3661008b57005b005b34801561009957600080fd5b50475b60405190815260200160405180910390f35b3480156100ba57600080fd5b5061008b61015c565b3480156100cf57600080fd5b5061009c60085481565b3480156100e557600080fd5b5061009c60065481565b3480156100fb57600080fd5b5061009c600b5481565b34801561011157600080fd5b5061009c600a5481565b34801561012757600080fd5b5061009c60075481565b34801561013d57600080fd5b5061009c60095481565b34801561015357600080fd5b5061008b610585565b6000805460065460405183926001600160a01b031691908381818185875af1925050503d80600081146101ab576040519150601f19603f3d011682016040523d82523d6000602084013e6101b0565b606091505b5060015460075460405193955091935060009283926001600160a01b0390921691908381818185875af1925050503d806000811461020a576040519150601f19603f3d011682016040523d82523d6000602084013e61020f565b606091505b5060025460085460405193955091935060009283926001600160a01b0390921691908381818185875af1925050503d8060008114610269576040519150601f19603f3d011682016040523d82523d6000602084013e61026e565b606091505b5060035460095460405193955091935060009283926001600160a01b0390921691908381818185875af1925050503d80600081146102c8576040519150601f19603f3d011682016040523d82523d6000602084013e6102cd565b606091505b50600454600a5460405193955091935060009283926001600160a01b0390921691908381818185875af1925050503d8060008114610327576040519150601f19603f3d011682016040523d82523d6000602084013e61032c565b606091505b50600554600b5460405193955091935060009283926001600160a01b0390921691908381818185875af1925050503d8060008114610386576040519150601f19603f3d011682016040523d82523d6000602084013e61038b565b606091505b50915091508b6103ec5760405162461bcd60e51b815260206004820152602160248201527f6661696c656420746f2073656e6420746f2063616e746f5f6d657373656e67656044820152603960f91b60648201526084015b60405180910390fd5b896104395760405162461bcd60e51b815260206004820152601860248201527f6661696c656420746f2073656e6420746f2062616d626f6f000000000000000060448201526064016103e3565b876104865760405162461bcd60e51b815260206004820152601d60248201527f6661696c656420746f2073656e6420746f2063616e746f5f746f6f6c7300000060448201526064016103e3565b856104dd5760405162461bcd60e51b815260206004820152602160248201527f6661696c656420746f2073656e6420746f2063616e74696c6c696f6e616972656044820152607360f81b60648201526084016103e3565b8361052a5760405162461bcd60e51b815260206004820152601a60248201527f6661696c656420746f2073656e6420746f2063616e746f5f736800000000000060448201526064016103e3565b816105775760405162461bcd60e51b815260206004820152601860248201527f6661696c656420746f2073656e6420746f20636172626f6e000000000000000060448201526064016103e3565b505050505050505050505050565b600080546006546040516001600160a01b039092169281156108fc029290818181858888f193505050501580156105c0573d6000803e3d6000fd5b506001546007546040516001600160a01b039092169181156108fc0291906000818181858888f193505050501580156105fd573d6000803e3d6000fd5b506002546008546040516001600160a01b039092169181156108fc0291906000818181858888f1935050505015801561063a573d6000803e3d6000fd5b506003546009546040516001600160a01b039092169181156108fc0291906000818181858888f19350505050158015610677573d6000803e3d6000fd5b50600454600a546040516001600160a01b039092169181156108fc0291906000818181858888f193505050501580156106b4573d6000803e3d6000fd5b50600554600b546040516001600160a01b039092169181156108fc0291906000818181858888f193505050501580156106f1573d6000803e3d6000fd5b5056fea264697066735822122092587ad8054ee7d8a379f6fa2c756ccfba06c596cef9210bc8da0261b8aaa70164736f6c634300080b0033",
  "linkReferences": {},
  "deployedLinkReferences": {}
}